{
  "_format": "hh-sol-artifact-1",
  "contractName": "ERC20Mintable",
  "sourceName": "contracts/ERC20Mintable.sol",
  "abi": [
    {
      "inputs": [],
      "stateMutability": "nonpayable",
      "type": "constructor"
    },
    {
      "anonymous": false,
      "inputs": [
        {
          "indexed": true,
          "internalType": "address",
          "name": "owner",
          "type": "address"
        },
        {
          "indexed": true,
          "internalType": "address",
          "name": "spender",
          "type": "address"
        },
        {
          "indexed": false,
          "internalType": "uint256",
          "name": "value",
          "type": "uint256"
        }
      ],
      "name": "Approval",
      "type": "event"
    },
    {
      "anonymous": false,
      "inputs": [
        {
          "indexed": true,
          "internalType": "address",
          "name": "from",
          "type": "address"
        },
        {
          "indexed": true,
          "internalType": "address",
          "name": "to",
          "type": "address"
        },
        {
          "indexed": false,
          "internalType": "uint256",
          "name": "value",
          "type": "uint256"
        }
      ],
      "name": "Transfer",
      "type": "event"
    },
    {
      "inputs": [
        {
          "internalType": "address",
          "name": "owner",
          "type": "address"
        },
        {
          "internalType": "address",
          "name": "spender",
          "type": "address"
        }
      ],
      "name": "allowance",
      "outputs": [
        {
          "internalType": "uint256",
          "name": "",
          "type": "uint256"
        }
      ],
      "stateMutability": "view",
      "type": "function"
    },
    {
      "inputs": [
        {
          "internalType": "address",
          "name": "spender",
          "type": "address"
        },
        {
          "internalType": "uint256",
          "name": "amount",
          "type": "uint256"
        }
      ],
      "name": "approve",
      "outputs": [
        {
          "internalType": "bool",
          "name": "",
          "type": "bool"
        }
      ],
      "stateMutability": "nonpayable",
      "type": "function"
    },
    {
      "inputs": [
        {
          "internalType": "address",
          "name": "account",
          "type": "address"
        }
      ],
      "name": "balanceOf",
      "outputs": [
        {
          "internalType": "uint256",
          "name": "",
          "type": "uint256"
        }
      ],
      "stateMutability": "view",
      "type": "function"
    },
    {
      "inputs": [],
      "name": "decimals",
      "outputs": [
        {
          "internalType": "uint8",
          "name": "",
          "type": "uint8"
        }
      ],
      "stateMutability": "view",
      "type": "function"
    },
    {
      "inputs": [
        {
          "internalType": "address",
          "name": "spender",
          "type": "address"
        },
        {
          "internalType": "uint256",
          "name": "subtractedValue",
          "type": "uint256"
        }
      ],
      "name": "decreaseAllowance",
      "outputs": [
        {
          "internalType": "bool",
          "name": "",
          "type": "bool"
        }
      ],
      "stateMutability": "nonpayable",
      "type": "function"
    },
    {
      "inputs": [],
      "name": "getToken",
      "outputs": [],
      "stateMutability": "nonpayable",
      "type": "function"
    },
    {
      "inputs": [
        {
          "internalType": "address",
          "name": "spender",
          "type": "address"
        },
        {
          "internalType": "uint256",
          "name": "addedValue",
          "type": "uint256"
        }
      ],
      "name": "increaseAllowance",
      "outputs": [
        {
          "internalType": "bool",
          "name": "",
          "type": "bool"
        }
      ],
      "stateMutability": "nonpayable",
      "type": "function"
    },
    {
      "inputs": [],
      "name": "name",
      "outputs": [
        {
          "internalType": "string",
          "name": "",
          "type": "string"
        }
      ],
      "stateMutability": "view",
      "type": "function"
    },
    {
      "inputs": [],
      "name": "symbol",
      "outputs": [
        {
          "internalType": "string",
          "name": "",
          "type": "string"
        }
      ],
      "stateMutability": "view",
      "type": "function"
    },
    {
      "inputs": [],
      "name": "totalSupply",
      "outputs": [
        {
          "internalType": "uint256",
          "name": "",
          "type": "uint256"
        }
      ],
      "stateMutability": "view",
      "type": "function"
    },
    {
      "inputs": [
        {
          "internalType": "address",
          "name": "to",
          "type": "address"
        },
        {
          "internalType": "uint256",
          "name": "amount",
          "type": "uint256"
        }
      ],
      "name": "transfer",
      "outputs": [
        {
          "internalType": "bool",
          "name": "",
          "type": "bool"
        }
      ],
      "stateMutability": "nonpayable",
      "type": "function"
    },
    {
      "inputs": [
        {
          "internalType": "address",
          "name": "from",
          "type": "address"
        },
        {
          "internalType": "address",
          "name": "to",
          "type": "address"
        },
        {
          "internalType": "uint256",
          "name": "amount",
          "type": "uint256"
        }
      ],
      "name": "transferFrom",
      "outputs": [
        {
          "internalType": "bool",
          "name": "",
          "type": "bool"
        }
      ],
      "stateMutability": "nonpayable",
      "type": "function"
    }
  ],
  "bytecode": "0x60806040523480156200001157600080fd5b506040518060400160405280600481526020017f476f6c64000000000000000000000000000000000000000000000000000000008152506040518060400160405280600381526020017f474c44000000000000000000000000000000000000000000000000000000000081525081600390805190602001906200009692919062000252565b508060049080519060200190620000af92919062000252565b505050620000c93364174876e800620000cf60201b60201c565b620004ae565b600073ffffffffffffffffffffffffffffffffffffffff168273ffffffffffffffffffffffffffffffffffffffff16141562000142576040517f08c379a000000000000000000000000000000000000000000000000000000000815260040162000139906200033a565b60405180910390fd5b62000156600083836200024860201b60201c565b80600260008282546200016a91906200038a565b92505081905550806000808473ffffffffffffffffffffffffffffffffffffffff1673ffffffffffffffffffffffffffffffffffffffff1681526020019081526020016000206000828254620001c191906200038a565b925050819055508173ffffffffffffffffffffffffffffffffffffffff16600073ffffffffffffffffffffffffffffffffffffffff167fddf252ad1be2c89b69c2b068fc378daa952ba7f163c4a11628f55a4df523b3ef836040516200022891906200035c565b60405180910390a362000244600083836200024d60201b60201c565b5050565b505050565b505050565b8280546200026090620003f1565b90600052602060002090601f016020900481019282620002845760008555620002d0565b82601f106200029f57805160ff1916838001178555620002d0565b82800160010185558215620002d0579182015b82811115620002cf578251825591602001919060010190620002b2565b5b509050620002df9190620002e3565b5090565b5b80821115620002fe576000816000905550600101620002e4565b5090565b600062000311601f8362000379565b91506200031e8262000485565b602082019050919050565b6200033481620003e7565b82525050565b60006020820190508181036000830152620003558162000302565b9050919050565b600060208201905062000373600083018462000329565b92915050565b600082825260208201905092915050565b60006200039782620003e7565b9150620003a483620003e7565b9250827fffffffffffffffffffffffffffffffffffffffffffffffffffffffffffffffff03821115620003dc57620003db62000427565b5b828201905092915050565b6000819050919050565b600060028204905060018216806200040a57607f821691505b6020821081141562000421576200042062000456565b5b50919050565b7f4e487b7100000000000000000000000000000000000000000000000000000000600052601160045260246000fd5b7f4e487b7100000000000000000000000000000000000000000000000000000000600052602260045260246000fd5b7f45524332303a206d696e7420746f20746865207a65726f206164647265737300600082015250565b61144280620004be6000396000f3fe608060405234801561001057600080fd5b50600436106100b45760003560e01c80633950935111610071578063395093511461017d57806370a08231146101ad57806395d89b41146101dd578063a457c2d7146101fb578063a9059cbb1461022b578063dd62ed3e1461025b576100b4565b806306fdde03146100b9578063095ea7b3146100d757806318160ddd1461010757806321df0da71461012557806323b872dd1461012f578063313ce5671461015f575b600080fd5b6100c161028b565b6040516100ce9190610ebf565b60405180910390f35b6100f160048036038101906100ec9190610cea565b61031d565b6040516100fe9190610ea4565b60405180910390f35b61010f610340565b60405161011c9190610fe1565b60405180910390f35b61012d61034a565b005b61014960048036038101906101449190610c9b565b610358565b6040516101569190610ea4565b60405180910390f35b610167610387565b6040516101749190610ffc565b60405180910390f35b61019760048036038101906101929190610cea565b610390565b6040516101a49190610ea4565b60405180910390f35b6101c760048036038101906101c29190610c36565b6103c7565b6040516101d49190610fe1565b60405180910390f35b6101e561040f565b6040516101f29190610ebf565b60405180910390f35b61021560048036038101906102109190610cea565b6104a1565b6040516102229190610ea4565b60405180910390f35b61024560048036038101906102409190610cea565b610518565b6040516102529190610ea4565b60405180910390f35b61027560048036038101906102709190610c5f565b61053b565b6040516102829190610fe1565b60405180910390f35b60606003805461029a90611111565b80601f01602080910402602001604051908101604052809291908181526020018280546102c690611111565b80156103135780601f106102e857610100808354040283529160200191610313565b820191906000526020600020905b8154815290600101906020018083116102f657829003601f168201915b5050505050905090565b6000806103286105c2565b90506103358185856105ca565b600191505092915050565b6000600254905090565b610356336103e8610795565b565b6000806103636105c2565b90506103708582856108f5565b61037b858585610981565b60019150509392505050565b60006012905090565b60008061039b6105c2565b90506103bc8185856103ad858961053b565b6103b79190611033565b6105ca565b600191505092915050565b60008060008373ffffffffffffffffffffffffffffffffffffffff1673ffffffffffffffffffffffffffffffffffffffff168152602001908152602001600020549050919050565b60606004805461041e90611111565b80601f016020809104026020016040519081016040528092919081815260200182805461044a90611111565b80156104975780601f1061046c57610100808354040283529160200191610497565b820191906000526020600020905b81548152906001019060200180831161047a57829003601f168201915b5050505050905090565b6000806104ac6105c2565b905060006104ba828661053b565b9050838110156104ff576040517f08c379a00000000000000000000000000000000000000000000000000000000081526004016104f690610fa1565b60405180910390fd5b61050c82868684036105ca565b60019250505092915050565b6000806105236105c2565b9050610530818585610981565b600191505092915050565b6000600160008473ffffffffffffffffffffffffffffffffffffffff1673ffffffffffffffffffffffffffffffffffffffff16815260200190815260200160002060008373ffffffffffffffffffffffffffffffffffffffff1673ffffffffffffffffffffffffffffffffffffffff16815260200190815260200160002054905092915050565b600033905090565b600073ffffffffffffffffffffffffffffffffffffffff168373ffffffffffffffffffffffffffffffffffffffff16141561063a576040517f08c379a000000000000000000000000000000000000000000000000000000000815260040161063190610f81565b60405180910390fd5b600073ffffffffffffffffffffffffffffffffffffffff168273ffffffffffffffffffffffffffffffffffffffff1614156106aa576040517f08c379a00000000000000000000000000000000000000000000000000000000081526004016106a190610f01565b60405180910390fd5b80600160008573ffffffffffffffffffffffffffffffffffffffff1673ffffffffffffffffffffffffffffffffffffffff16815260200190815260200160002060008473ffffffffffffffffffffffffffffffffffffffff1673ffffffffffffffffffffffffffffffffffffffff168152602001908152602001600020819055508173ffffffffffffffffffffffffffffffffffffffff168373ffffffffffffffffffffffffffffffffffffffff167f8c5be1e5ebec7d5bd14f71427d1e84f3dd0314c0f7b2291e5b200ac8c7c3b925836040516107889190610fe1565b60405180910390a3505050565b600073ffffffffffffffffffffffffffffffffffffffff168273ffffffffffffffffffffffffffffffffffffffff161415610805576040517f08c379a00000000000000000000000000000000000000000000000000000000081526004016107fc90610fc1565b60405180910390fd5b61081160008383610c02565b80600260008282546108239190611033565b92505081905550806000808473ffffffffffffffffffffffffffffffffffffffff1673ffffffffffffffffffffffffffffffffffffffff16815260200190815260200160002060008282546108789190611033565b925050819055508173ffffffffffffffffffffffffffffffffffffffff16600073ffffffffffffffffffffffffffffffffffffffff167fddf252ad1be2c89b69c2b068fc378daa952ba7f163c4a11628f55a4df523b3ef836040516108dd9190610fe1565b60405180910390a36108f160008383610c07565b5050565b6000610901848461053b565b90507fffffffffffffffffffffffffffffffffffffffffffffffffffffffffffffffff811461097b578181101561096d576040517f08c379a000000000000000000000000000000000000000000000000000000000815260040161096490610f21565b60405180910390fd5b61097a84848484036105ca565b5b50505050565b600073ffffffffffffffffffffffffffffffffffffffff168373ffffffffffffffffffffffffffffffffffffffff1614156109f1576040517f08c379a00000000000000000000000000000000000000000000000000000000081526004016109e890610f61565b60405180910390fd5b600073ffffffffffffffffffffffffffffffffffffffff168273ffffffffffffffffffffffffffffffffffffffff161415610a61576040517f08c379a0000000000000000000000000000000000000000000000000000000008152600401610a5890610ee1565b60405180910390fd5b610a6c838383610c02565b60008060008573ffffffffffffffffffffffffffffffffffffffff1673ffffffffffffffffffffffffffffffffffffffff16815260200190815260200160002054905081811015610af2576040517f08c379a0000000000000000000000000000000000000000000000000000000008152600401610ae990610f41565b60405180910390fd5b8181036000808673ffffffffffffffffffffffffffffffffffffffff1673ffffffffffffffffffffffffffffffffffffffff16815260200190815260200160002081905550816000808573ffffffffffffffffffffffffffffffffffffffff1673ffffffffffffffffffffffffffffffffffffffff1681526020019081526020016000206000828254610b859190611033565b925050819055508273ffffffffffffffffffffffffffffffffffffffff168473ffffffffffffffffffffffffffffffffffffffff167fddf252ad1be2c89b69c2b068fc378daa952ba7f163c4a11628f55a4df523b3ef84604051610be99190610fe1565b60405180910390a3610bfc848484610c07565b50505050565b505050565b505050565b600081359050610c1b816113de565b92915050565b600081359050610c30816113f5565b92915050565b600060208284031215610c4857600080fd5b6000610c5684828501610c0c565b91505092915050565b60008060408385031215610c7257600080fd5b6000610c8085828601610c0c565b9250506020610c9185828601610c0c565b9150509250929050565b600080600060608486031215610cb057600080fd5b6000610cbe86828701610c0c565b9350506020610ccf86828701610c0c565b9250506040610ce086828701610c21565b9150509250925092565b60008060408385031215610cfd57600080fd5b6000610d0b85828601610c0c565b9250506020610d1c85828601610c21565b9150509250929050565b610d2f8161109b565b82525050565b6000610d4082611017565b610d4a8185611022565b9350610d5a8185602086016110de565b610d63816111a1565b840191505092915050565b6000610d7b602383611022565b9150610d86826111b2565b604082019050919050565b6000610d9e602283611022565b9150610da982611201565b604082019050919050565b6000610dc1601d83611022565b9150610dcc82611250565b602082019050919050565b6000610de4602683611022565b9150610def82611279565b604082019050919050565b6000610e07602583611022565b9150610e12826112c8565b604082019050919050565b6000610e2a602483611022565b9150610e3582611317565b604082019050919050565b6000610e4d602583611022565b9150610e5882611366565b604082019050919050565b6000610e70601f83611022565b9150610e7b826113b5565b602082019050919050565b610e8f816110c7565b82525050565b610e9e816110d1565b82525050565b6000602082019050610eb96000830184610d26565b92915050565b60006020820190508181036000830152610ed98184610d35565b905092915050565b60006020820190508181036000830152610efa81610d6e565b9050919050565b60006020820190508181036000830152610f1a81610d91565b9050919050565b60006020820190508181036000830152610f3a81610db4565b9050919050565b60006020820190508181036000830152610f5a81610dd7565b9050919050565b60006020820190508181036000830152610f7a81610dfa565b9050919050565b60006020820190508181036000830152610f9a81610e1d565b9050919050565b60006020820190508181036000830152610fba81610e40565b9050919050565b60006020820190508181036000830152610fda81610e63565b9050919050565b6000602082019050610ff66000830184610e86565b92915050565b60006020820190506110116000830184610e95565b92915050565b600081519050919050565b600082825260208201905092915050565b600061103e826110c7565b9150611049836110c7565b9250827fffffffffffffffffffffffffffffffffffffffffffffffffffffffffffffffff0382111561107e5761107d611143565b5b828201905092915050565b6000611094826110a7565b9050919050565b60008115159050919050565b600073ffffffffffffffffffffffffffffffffffffffff82169050919050565b6000819050919050565b600060ff82169050919050565b60005b838110156110fc5780820151818401526020810190506110e1565b8381111561110b576000848401525b50505050565b6000600282049050600182168061112957607f821691505b6020821081141561113d5761113c611172565b5b50919050565b7f4e487b7100000000000000000000000000000000000000000000000000000000600052601160045260246000fd5b7f4e487b7100000000000000000000000000000000000000000000000000000000600052602260045260246000fd5b6000601f19601f8301169050919050565b7f45524332303a207472616e7366657220746f20746865207a65726f206164647260008201527f6573730000000000000000000000000000000000000000000000000000000000602082015250565b7f45524332303a20617070726f766520746f20746865207a65726f20616464726560008201527f7373000000000000000000000000000000000000000000000000000000000000602082015250565b7f45524332303a20696e73756666696369656e7420616c6c6f77616e6365000000600082015250565b7f45524332303a207472616e7366657220616d6f756e742065786365656473206260008201527f616c616e63650000000000000000000000000000000000000000000000000000602082015250565b7f45524332303a207472616e736665722066726f6d20746865207a65726f20616460008201527f6472657373000000000000000000000000000000000000000000000000000000602082015250565b7f45524332303a20617070726f76652066726f6d20746865207a65726f2061646460008201527f7265737300000000000000000000000000000000000000000000000000000000602082015250565b7f45524332303a2064656372656173656420616c6c6f77616e63652062656c6f7760008201527f207a65726f000000000000000000000000000000000000000000000000000000602082015250565b7f45524332303a206d696e7420746f20746865207a65726f206164647265737300600082015250565b6113e781611089565b81146113f257600080fd5b50565b6113fe816110c7565b811461140957600080fd5b5056fea2646970667358221220eb573b3bbf2ef6fdb26a20bc9e1cabc9a0e0768c14a223f2aca8ac12ba0f664564736f6c63430008040033",
  "linkReferences": {},
  "deployedLinkReferences": {}
}